:100000000C94A5000C94CD000C94CD000C94CD0064
:100010000C94CD000C94CD000C94CD000C94CD002C
:100020000C94CD000C94CD000C94CD000C94CD001C
:100030000C94CD000C94CD000C94CD000C94CD000C
:100040000C94150A0C94CD000C942E070C946007A8
:100050000C94CD000C94CD000C94CD000C94CD00EC
:100060000C9493030C94CD00504354323037353AFE
:1000700000536F6D657468696E6720776965726497
:100080002068617070656E656400556E6B6E6F7789
:100090006E206572726F72206F6363757272656431
:1000A000004E6F2041434B206F6E206461746100ED
:1000B0004E6F2041434B206F6E2061646472657304
:1000C0007300546F6F206D756368206461746120E4
:1000D000696E206275666665720057726974652084
:1000E000746F204441432073756363657366756C58
:1000F000004441433A0000000008000201000003F0
:1001000004070000000000000000010204081020A5
:100110004080010204081020010204081020040499
:10012000040404040404020202020202030303039F
:10013000030300000000250028002B000000000041
:10014000240027002A00E505900711241FBECFEFE9
:10015000D8E0DEBFCDBF11E0A0E0B1E0E8EBFBE10D
:1001600002C005900D92A437B107D9F723E0A4E7A8
:10017000B1E001C01D92AB37B207E1F711E0CAE46C
:10018000D1E004C02297FE010E94D60DC634D107EB
:10019000C9F70E94060A0C94DA0D0C940000CF9364
:1001A000DF9300D0CDB7DEB7682F83E892E04A83B3
:1001B00059830E9461055981652F83E892E00E946E
:1001C00018054A81642F83E892E00E94180583E8AD
:1001D00092E00E94E20590E0909375018093740193
:1001E0000F900F90DF91CF910895CF93DF93C82F99
:1001F000D62F682F83E892E00E9461056D2F83E877
:1002000092E00E94180583E892E00E94E205282F00
:1002100030E03093750120937401232B61F068E680
:1002200070E085ED92E00E94410880917401909108
:1002300075010E94E40142E06C2F83E892E00E9485
:10024000DF0583E892E00E94C004029774F083E81F
:1002500092E00E94C804D82F80E0C82F83E892E083
:100260000E94C8048C2B9D2B08C061E071E085EDD5
:1002700092E00E94530880E090E0DF91CF910895D2
:10028000CF92DF92EF92FF920F931F93CF93DF9362
:1002900088E191E00E940102E12CF12CC0E0D0E065
:1002A000CE010E946E0234E2C32E31E0D32E00E074
:1002B00010E060E0F60181916F010E94F50025E0F9
:1002C000969587952A95E1F7BC0180E090E00E9421
:1002D000950C20E030E040E05EE30E944B0DAB0166
:1002E000BC01C8018E0D9F1D0E940E020F5F1F4FA3
:1002F00009301105F1F62196F9E0EF0EF11CC4303A
:10030000D10571F6DF91CF911F910F91FF90EF9082
:10031000DF90CF900C944D0283E892E00E94570545
:1003200026E040E052EC61E070E085ED92E00E9452
:10033000CC0661E088E00E94230B61E089E00E9426
:10034000230B60E08EE00E94230B60E088E00E94B7
:100350005C0B60E089E00E945C0B61E08DE00E9434
:10036000230B61E08AE00E94230B80E00E94F70AE1
:100370000E94810260E08AE00E945C0B62E370E010
:1003800080E090E00E94820A61E08AE00C945C0BBD
:1003900064EF71E080E090E00E94820A61E08DE00D
:1003A0000E945C0B64EF71E080E090E00E94820AA2
:1003B00060E08DE00E945C0B0E9440014DEC5BEA26
:1003C00060E080E00C94CF008230910571F02CF455
:1003D000019789F462EC70E010C08330910541F020
:1003E000049749F46AE870E008C060EB70E005C06B
:1003F00061EA70E002C061E770E085ED92E00C9484
:100400004108E6E7F1E0DC012D91CD01222329F03E
:10041000219321E0E438F207B1F70895CF92DF92FB
:10042000EF92FF92CF93DF93EC016A017B0184325C
:10043000910564F5FC01EE0FFF1FEE0FFF1FEB5758
:10044000FE4F40835183628373836DE271E085EDDB
:1004500092E00E9434084AE050E0BE0185ED92E04F
:100460000E94FE0866E371E085ED92E00E94340888
:1004700022E030E0B701A60185ED92E0DF91CF9157
:10048000FF90EF90DF90CF900C94F309DF91CF9124
:10049000FF90EF90DF90CF900895CF93DF9366E7C2
:1004A00071E085ED92E00E943408C5E8D1E06FE389
:1004B00071E085ED92E00E9434084991599169916B
:1004C000799122E030E085ED92E00E94F10982E02E
:1004D000C531D80761F7DF91CF910895CF93C82F29
:1004E00080FF02C061E001C060E088E00E945C0B18
:1004F000C1FF02C061E001C060E089E0CF910C94CF
:100500005C0B60E683E892E00E94610560E083E8AE
:1005100092E00E94180560E083E892E00E941805CE
:1005200083E892E00E94E20590E090937501809349
:100530007401892B61F061EF70E085ED92E00E941B
:10054000410880917401909175010C94E4016AED69
:1005500070E085ED92E00C9441081092820281E0F7
:100560008093800210927F0261E082E10E945C0B26
:1005700061E083E10E945C0BE9EBF0E080818E7F1B
:10058000808380818D7F808388E48093B80085E4B8
:100590008093BC000895413208F043C090918202DC
:1005A0009111FCCF91E090938202209380022FEF73
:1005B0002093150210925A02240F2093590290930F
:1005C000810290918102880F892B80938102809112
:1005D0007F02813061F410927F02809181028093CA
:1005E000BB008091BC0083FDF8CF85EC01C085EE97
:1005F0008093BC00809182028130E1F380915A02A5
:10060000841710F440915A022BE532E0FB01D90126
:100610008A2F821B841718F48D918193F9CF842F30
:10062000089580E008950F93413208F04AC09091F8
:1006300082029111FCCF92E090938202009380029B
:100640009FEF9093150210925A0240935902FB01BA
:100650006BE572E0DB019A2F961B941718F49191C9
:100660009D93F9CF1092810290918102880F892B7E
:100670008093810280917F02813061F410927F0229
:10068000809181028093BB008091BC0083FDF8CFF4
:1006900085EC01C085EE8093BC00222321F080917F
:1006A00082028230E1F3809115028F3F61F08091E8
:1006B0001502803251F080911502803341F483E0BD
:1006C00007C081E005C080E003C082E001C084E093
:1006D0000F910895613298F420918202243089F4B8
:1006E00060933702FC0189E392E0DC012A2F281B8A
:1006F000261718F421912D93F9CF80E0089581E019
:10070000089582E0089585ED8093BC008091BC003F
:1007100084FDFCCF10928202089585EC8093BC008A
:100720001092820208951F920F920FB60F92112419
:100730002F933F934F935F936F937F938F939F93E9
:10074000AF93BF93EF93FF938091B900887F80367A
:1007500009F49EC078F5883209F45DC090F48031C8
:1007600009F456C038F4882309F4F5C0883009F438
:100770004FC0F5C0883109F44EC0803209F45FC023
:10078000EEC0803409F46AC058F4803309F457C0CD
:10079000883309F0E4C0809315020E948D03DFC006
:1007A000803509F44FC0883509F45DC0883409F0FC
:1007B000D6C0D3C0883909F4C4C0A8F4883709F476
:1007C00067C038F4883609F463C0803709F460C024
:1007D000C6C0883809F4B5C0803909F45FC08038D4
:1007E00009F0BDC05BC0803B09F483C038F4803A97
:1007F00009F466C0883A09F47CC0B1C0803C09F4B1
:10080000A4C0883C09F4A1C0883B09F487C0A7C0F4
:100810008091810210C090915A02809159029817DC
:1008200070F5E0915A0281E08E0F80935A02F0E059
:10083000E55AFD4F80818093BB0085EC83C0809397
:1008400015028BC0E0915A0281E08E0F80935A020C
:100850008091BB00F0E0E55AFD4F808390915A02F1
:10086000809159026BC0E0915A0281E08E0F809313
:100870005A028091BB00F0E0E55AFD4F80838091E1
:10088000800281116AC081E080937F0284EA5EC0A9
:1008900083E08093820210921602CFCF80911602DD
:1008A000803208F04EC0E091160281E08E0F8093F6
:1008B00016028091BB00F0E0E95EFD4F8083BDCF62
:1008C0000E948D0380911602803230F4E09116026E
:1008D000F0E0E95EFD4F10826091160270E0E09159
:1008E0007B02F0917C0287E192E00995109216025A
:1008F00036C084E080938202109238021092370250
:10090000E0917D02F0917E0209958091370281117C
:1009100005C081E08093370210923902E0913802DD
:1009200081E08E0F80933802F0E0E75CFD4F80811C
:100930008093BB009091380280913702981708F499
:100940007CCF85E88093BC000AC085EC8093BC0016
:100950001092820204C0109215020E948303FF913C
:10096000EF91BF91AF919F918F917F916F915F9127
:100970004F913F912F910F900FBE0F901F901895A0
:100980008091B30290E02091B402821B91090895F6
:100990002091B4028091B302281750F4E22FF0E0C6
:1009A000EB54FD4F808190E02F5F2093B4020895B7
:1009B0008FEF9FEF0895E091B4028091B302E817A2
:1009C00030F4F0E0EB54FD4F808190E008958FEF1C
:1009D0009FEF08950895CF92DF92EF92FF920F93C9
:1009E0001F93CF93DF937C01CB018A0120918F026B
:1009F000222389F0EB016B01C40ED51ECC15DD0559
:100A000069F06991D701ED91FC910190F081E02DA1
:100A1000C7010995F3CF642F0E946A03C801DF91D3
:100A2000CF911F910F91FF90EF90DF90CF9008959D
:100A3000CF93DF931F92CDB7DEB7698320918F02EA
:100A40002223D1F020919002203240F021E030E0CA
:100A5000FC013383228380E090E015C080919102F5
:100A6000E82FF0E0EE56FD4F998190838F5F8093E1
:100A700091028093900205C061E0CE0101960E9430
:100A80006A0381E090E00F90DF91CF910895FC011F
:100A90001382128248EE53E060E070E04483558395
:100AA0006683778386E491E0918380830895109232
:100AB000B4021092B30210929102109290020C9420
:100AC000AD0281E080938F026093B2021092910296
:100AD0001092900208950F93062F21E0409190020A
:100AE00062E972E08091B2020E94130310929102B7
:100AF0001092900210928F020F9108958F929F9200
:100B0000AF92BF92CF92DF92EF92FF920F931F931B
:100B1000CF93DF93EC01F62ED42E48015901EE203D
:100B200019F10E9461051E2D143008F013E01150D8
:100B3000B8F0E881F98128E0129FB0011124A501E5
:100B4000940104C056954795379527956A95D2F735
:100B5000CA01B9010190F081E02DCE010995E7CFDE
:100B600060E0CE010E946B054D2D413208F040E25D
:100B70002C2D65EB72E08F2D0E94CB021092B402F7
:100B80008093B302DF91CF911F910F91FF90EF906F
:100B9000DF90CF90BF90AF909F908F900895CF92AD
:100BA000EF920F931F93C22EE12C00E010E098010A
:100BB0000E947E051F910F91EF90CF90089521E044
:100BC0000C94CF0561E00C946B0583E892E00C94E3
:100BD0004705FC01818D228D90E0805C9F4F821B38
:100BE00091098F7399270895FC01918D828D981733
:100BF00031F0828DE80FF11D858D90E008958FEF23
:100C00009FEF0895FC01918D828D981761F0828D80
:100C1000DF01A80FB11D5D968C91928D9F5F9F7330
:100C2000928F90E008958FEF9FEF089586E897E008
:100C3000892B49F080E090E0892B29F00E948607FB
:100C400081110C9400000895FC01848DDF01A80F30
:100C5000B11DA35ABF4F2C91848D90E001968F73E4
:100C60009927848FA689B7892C93A089B1898C9103
:100C700080648C93938D848D981306C00288F389C9
:100C8000E02D80818F7D80830895CF93DF93EC01E9
:100C9000888D8823C9F0EA89FB89808185FD05C09C
:100CA000A889B9898C9186FD0FC00FB607FCF5CFD6
:100CB000808185FFF2CFA889B9898C9185FFEDCF1E
:100CC000CE010E942406E7CFDF91CF910895CF9205
:100CD000DF92FF920F931F93CF93DF931F92CDB7B5
:100CE000DEB76C0181E0D60158968C9358975B96DD
:100CF0009C915B975C968C915C97981307C050967B
:100D0000ED91FC915197808185FD2EC0F601038DF8
:100D100010E00F5F1F4F0F731127F02EF601848D27
:100D2000F81211C00FB607FCF9CFD6015096ED911D
:100D3000FC915197808185FFF1CFC60169830E94A4
:100D400024066981EBCF838DE80FF11DE35AFF4F35
:100D50006083D6015B960C935B975296ED91FC9164
:100D60005397808180620CC0D6015696ED91FC911C
:100D7000579760835096ED91FC91519780818064E4
:100D8000808381E090E00F90DF91CF911F910F91D0
:100D9000FF90DF90CF900895BF92CF92DF92EF92B5
:100DA000FF92CF93DF93EC016A017B01B22EE889B9
:100DB000F98982E08083411581EE5807610571054C
:100DC000A1F060E079E08DE390E0A70196010E9438
:100DD000B20D215031094109510956954795379572
:100DE0002795211580E1380798F0E889F989108264
:100DF00060E874E88EE190E0A70196010E94B20DD0
:100E00002150310941095109569547953795279544
:100E1000EC85FD853083EE85FF852083188EEC8977
:100E2000FD89B082EA89FB89808180618083EA89BB
:100E3000FB89808188608083EA89FB898081806862
:100E40008083EA89FB8980818F7D8083DF91CF91C8
:100E5000FF90EF90DF90CF90BF9008951F920F9278
:100E60000FB60F9211242F938F939F93EF93FF93BD
:100E7000E091E502F091E6028081E091EB02F091D1
:100E8000EC0282FD12C090818091EE028F5F8F7321
:100E90002091EF02821751F0E091EE02F0E0EB5268
:100EA000FD4F958F8093EE0201C08081FF91EF91FD
:100EB0009F918F912F910F900FBE0F901F901895BB
:100EC0001F920F920FB60F9211242F933F934F93BF
:100ED0005F936F937F938F939F93AF93BF93EF93A2
:100EE000FF9385ED92E00E942406FF91EF91BF9160
:100EF000AF919F918F917F916F915F914F913F91B2
:100F00002F910F900FBE0F901F90189585ED92E0D6
:100F10000E94E90521E0892B09F420E0822F089541
:100F20001092D8021092D70288EE93E0A0E0B0E0D1
:100F30008093D9029093DA02A093DB02B093DC0293
:100F400086E591E09093D6028093D50285EC90E0FF
:100F50009093E2028093E10284EC90E09093E402AB
:100F60008093E30280EC90E09093E6028093E502A8
:100F700081EC90E09093E8028093E70282EC90E0AD
:100F80009093EA028093E90286EC90E09093EC0261
:100F90008093EB021092EE021092EF021092F00298
:100FA0001092F1020895CF92DF92EF92FF920F9389
:100FB0001F93CF93DF937C016A01EB0100E010E007
:100FC0000C151D0571F06991D701ED91FC9101900F
:100FD000F081E02DC7010995892B19F00F5F1F4F94
:100FE000EFCFC801DF91CF911F910F91FF90EF904C
:100FF000DF90CF9008956115710581F0DB010D90B0
:101000000020E9F7AD0141505109461B570BDC01A7
:10101000ED91FC910280F381E02D099480E090E055
:101020000895EF92FF920F931F93CF93DF938C015C
:101030007B01C0E0D0E0F701EC0FFD1F6491662357
:1010400059F0F801A081B181ED91FC91C801099599
:10105000892B11F02196EFCFCE01DF91CF911F9117
:101060000F91FF90EF9008950C94FB07DC01ED9138
:10107000FC910190F081E02D099462E671E00C94FE
:10108000FB070F931F93CF93DF93EC010E9411088E
:101090008C01CE010E943D08800F911FDF91CF91FE
:1010A0001F910F9108950F931F93CF93DF93EC013E
:1010B0000E94FB078C01CE010E943D08800F911F0A
:1010C000DF91CF911F910F9108958F929F92AF92D0
:1010D000BF92DF92EF92FF920F931F93CF93DF9314
:1010E000CDB7DEB7A1970FB6F894DEBF0FBECDBF68
:1010F0007C01F42FD52ECB0119A2223008F42AE06E
:101100008E010F5D1F4F822E912CA12CB12C6F2FC1
:101110007D2DA50194010E94B20DF22FD32ECA019C
:10112000015011096A3014F4E0E301C0E7E3E60F6F
:10113000D801EC93232B242B252B49F7B801C701A9
:101140000E94FB07A1960FB6F894DEBF0FBECDBF7D
:10115000DF91CF911F910F91FF90EF90DF90BF90A3
:10116000AF909F908F900895CF92DF92EF92FF9271
:101170000F931F93CF93DF93EC016A017B0121153D
:10118000310579F4E881F9810190F081E02D642F37
:10119000DF91CF911F910F91FF90EF90DF90CF9053
:1011A00009942A303105E9F477FF1AC06DE20E94F4
:1011B00036088C0144275527BA014C195D096E0980
:1011C0007F092AE0CE010E946508800F911FDF9100
:1011D000CF911F910F91FF90EF90DF90CF900895E6
:1011E0002AE0B701A601CE01DF91CF911F910F91A7
:1011F000FF90EF90DF90CF900C9465089A01AB01BF
:10120000662757FD6095762F0C94B4084F925F9235
:101210006F927F928F929F92AF92BF92CF92DF9206
:10122000EF92FF920F931F93CF93DF93EC016A012C
:101230007B01B22E9A01AB01C701B6010E94AE0D2F
:10124000882319F065E671E027C026013701E8948C
:1012500077F82FEF3FEF4FE75FE7C301B2010E943E
:10126000AE0D81110DC02FEF3FEF4FE75FE7C301D8
:10127000B2010E94F80B18161CF469E671E00CC06C
:101280002FEF3FEF4FE75FE4C701B6010E94470D24
:101290001816ACF46DE671E0CE01DF91CF911F918D
:1012A0000F91FF90EF90DF90CF90BF90AF909F9005
:1012B0008F907F906F905F904F900C94FB072FEF73
:1012C0003FEF4FE75FECC701B6010E94F80B87FDC7
:1012D000E1CF20E030E0A901C701B6010E94F80B80
:1012E00087FF0AC06DE2CE010E9436088C01F7FA32
:1012F000F094F7F8F09402C000E010E0A12C60E058
:1013000070E080E09FE3AB1441F020E030E040E289
:1013100051E40E94FC0BA394F6CF9B01AC01C701E2
:10132000B6010E94940B6B017C010E94690C2B0199
:101330003C010E94950C9B01AC01C701B6010E94C3
:10134000930B6B017C012AE0B301A201CE010E9444
:101350006508080F191FBB2039F061E771E0CE0165
:101360000E94FB07080F191F7B2C772041F120E01A
:1013700030E040E251E4C701B6010E944B0D6B0121
:101380007C010E94640C4B01AA2497FCA094BA2C07
:101390002AE030E0B501A401CE010E94B408080F94
:1013A000191FC501B4010E94970C9B01AC01C70134
:1013B000B6010E94930B6B017C017A94D6CFC801D1
:1013C000DF91CF911F910F91FF90EF90DF90CF9021
:1013D000BF90AF909F908F907F906F905F904F9055
:1013E00008950C9406090F931F93CF93DF93EC019C
:1013F0000E9406098C01CE010E943D08800F911FBA
:10140000DF91CF911F910F91089508950E94BC0A1A
:101410000E94050A0E948C01C6E1D6E00E94C80124
:101420002097E1F30E941606F9CF1F920F920FB694
:101430000F9211242F933F938F939F93AF93BF935A
:101440008091730390917403A0917503B09176031A
:101450003091720323E0230F2D3720F40196A11D54
:10146000B11D05C026E8230F0296A11DB11D2093D2
:1014700072038093730390937403A0937503B093E6
:1014800076038091770390917803A0917903B091CE
:101490007A030196A11DB11D809377039093780381
:1014A000A0937903B0937A03BF91AF919F918F91ED
:1014B0003F912F910F900FBE0F901F9018953FB73F
:1014C000F8948091770390917803A0917903B0917B
:1014D0007A0326B5A89B05C02F3F19F00196A11DE0
:1014E000B11D3FBF6627782F892F9A2F620F711D7C
:1014F000811D911D42E0660F771F881F991F4A9535
:10150000D1F708958F929F92AF92BF92CF92DF92C0
:10151000EF92FF926B017C010E945F0A4B015C011C
:10152000C114D104E104F104F1F00E94920B0E9475
:101530005F0A681979098A099B09683E7340810529
:10154000910570F321E0C21AD108E108F10888EE94
:10155000880E83E0981EA11CB11CC114D104E104C3
:10156000F10429F7DDCFFF90EF90DF90CF90BF908F
:10157000AF909F908F900895789484B5826084BDD9
:1015800084B5816084BD85B5826085BD85B5816087
:1015900085BDEEE6F0E0808181608083E1E8F0E0E7
:1015A0001082808182608083808181608083E0E816
:1015B000F0E0808181608083E1EBF0E080818460F5
:1015C0008083E0EBF0E0808181608083EAE7F0E0F7
:1015D000808184608083808182608083808181605B
:1015E00080838081806880831092C10008958093F9
:1015F00000010895833081F028F4813099F0823021
:10160000A1F008958730A9F08830B9F08430D1F482
:10161000809180008F7D03C0809180008F778093C0
:101620008000089584B58F7702C084B58F7D84BD16
:1016300008958091B0008F7703C08091B0008F7DB6
:101640008093B0000895CF93DF9390E0FC01E65FB4
:10165000FE4F2491FC01E25EFE4F8491882349F104
:1016600090E0880F991FFC01E45CFE4FA591B491B6
:101670008E5C9E4FFC01C591D4919FB7611108C04B
:10168000F8948C91209582238C93888182230AC0C0
:10169000623051F4F8948C91322F309583238C93DF
:1016A0008881822B888304C0F8948C91822B8C9340
:1016B0009FBFDF91CF9108950F931F93CF93DF9337
:1016C0001F92CDB7DEB7282F30E0F901EA50FF4F67
:1016D0008491F901E65FFE4F1491F901E25EFE4F3D
:1016E00004910023C9F0882321F069830E94FA0A3B
:1016F0006981E02FF0E0EE0FFF1FEE5CFE4FA59139
:10170000B4919FB7F8948C91611103C01095812317
:1017100001C0812B8C939FBF0F90DF91CF911F91C0
:101720000F91089508955058BB27AA270ED075C170
:1017300066D130F06BD120F031F49F3F11F41EF4EC
:101740005BC10EF4E095E7FB51C1E92F77D180F33F
:10175000BA17620773078407950718F071F49EF5AE
:101760008FC10EF4E0950B2EBA2FA02D0B01B901FD
:1017700090010C01CA01A0011124FF27591B99F007
:10178000593F50F4503E68F11A16F040A22F232F13
:10179000342F4427585FF3CF469537952795A79563
:1017A000F0405395C9F77EF41F16BA0B620B730B0A
:1017B000840BBAF09150A1F0FF0FBB1F661F771F7B
:1017C000881FC2F70EC0BA0F621F731F841F48F430
:1017D000879577956795B795F7959E3F08F0B3CFB6
:1017E0009395880F08F09927EE0F979587950895A0
:1017F000D9D008F481E008950CD00FC107D140F092
:10180000FED030F021F45F3F19F0F0C0511139C122
:10181000F3C014D198F39923C9F35523B1F3951B61
:10182000550BBB27AA2762177307840738F09F5F01
:101830005F4F220F331F441FAA1FA9F333D00E2E70
:101840003AF0E0E830D091505040E695001CCAF7DD
:1018500029D0FE2F27D0660F771F881FBB1F2617A2
:1018600037074807AB07B0E809F0BB0B802DBF0175
:10187000FF2793585F4F2AF09E3F510568F0B6C08E
:1018800000C15F3FECF3983EDCF386957795679552
:10189000B795F7959F5FC9F7880F911D9695879526
:1018A00097F90895E1E0660F771F881FBB1F621745
:1018B00073078407BA0720F0621B730B840BBA0B03
:1018C000EE1F88F7E095089504D06894B111D9C04F
:1018D0000895BCD088F09F5790F0B92F9927B75141
:1018E000A0F0D1F0660F771F881F991F1AF0BA95E4
:1018F000C9F712C0B13081F0C3D0B1E00895C0C0C3
:10190000672F782F8827B85F39F0B93FCCF38695D9
:1019100077956795B395D9F73EF490958095709536
:1019200061957F4F8F4F9F4F0895E89409C097FBB3
:101930003EF490958095709561957F4F8F4F9F4FA6
:101940009923A9F0F92F96E9BB279395F6958795EA
:1019500077956795B795F111F8CFFAF4BB0F11F4AD
:1019600060FF1BC06F5F7F4F8F4F9F4F16C0882354
:1019700011F096E911C0772321F09EE8872F762F8A
:1019800005C0662371F096E8862F70E060E02AF0CB
:101990009A95660F771F881FDAF7880F96958795B7
:1019A00097F90895990F0008550FAA0BE0E8FEEF8C
:1019B00016161706E807F907C0F012161306E40713
:1019C000F50798F0621B730B840B950B39F40A260C
:1019D00061F0232B242B252B21F408950A2609F4EA
:1019E000A140A6958FEF811D811D089597F99F67EE
:1019F00080E870E060E008959FEF80EC0895002497
:101A00000A941616170618060906089500240A9463
:101A100012161306140605060895092E0394000CE9
:101A200011F4882352F0BB0F40F4BF2B11F460FF78
:101A300004C06F5F7F4F8F4F9F4F089557FD9058A1
:101A4000440F551F59F05F3F71F04795880F97FB82
:101A5000991F61F09F3F79F087950895121613063C
:101A60001406551FF2CF4695F1DF08C0161617066B
:101A70001806991FF1CF86957105610508940895A0
:101A8000E894BB2766277727CB0197F908958ADF6B
:101A900008F48FEF08950BD0C0CFB1DF28F0B6DF88
:101AA00018F0952309F0A2CFA7CF1124EACFC6DF03
:101AB000A0F3959FD1F3950F50E0551F629FF00161
:101AC000729FBB27F00DB11D639FAA27F00DB11DBA
:101AD000AA1F649F6627B00DA11D661F829F222743
:101AE000B00DA11D621F739FB00DA11D621F839FCA
:101AF000A00D611D221F749F3327A00D611D231FA0
:101B0000849F600D211D822F762F6A2F11249F57ED
:101B100050408AF0E1F088234AF0EE0FFF1FBB1F10
:101B2000661F771F881F91505040A9F79E3F5105AF
:101B300070F05CCFA6CF5F3FECF3983EDCF3869568
:101B400077956795B795F795E7959F5FC1F7FE2B5A
:101B5000880F911D9695879597F9089523DF880B37
:101B6000990B0895A1E21A2EAA1BBB1BFD010DC003
:101B7000AA1FBB1FEE1FFF1FA217B307E407F5073D
:101B800020F0A21BB30BE40BF50B661F771F881F19
:101B9000991F1A9469F760957095809590959B01AF
:101BA000AC01BD01CF010895EE0FFF1F0590F49128
:081BB000E02D0994F894FFCF29
:101BB800014552524F522072656164696E67207206
:101BC800656769737465720054454D5045524154B8
:101BD8005552450076282A734A4E70484C4E756D0A
:101BE8006265723A20000956616C75653A20002CCE
:101BF8002000000000001805EB04C004C804DB0442
:101C0800EA04000000006706D307E9050206F405A8
:101C180045060D0A006E616E00696E66006F766695
:041C2800002E00008A
:00000001FF
