:100000000C94B3000C94DB000C94DB000C94DB002C
:100010000C94DB000C94DB000C94DB000C94DB00F4
:100020000C94DB000C94DB000C94DB000C94DB00E4
:100030000C94DB000C94DB000C94DB000C94DB00D4
:100040000C94ED060C94DB000C94C1050C94F305A4
:100050000C94DB000C94DB000C94DB000C94DB00B4
:100060000C948A020C94DB00536F6D657468696EA2
:10007000672077696572642068617070656E656479
:1000800000556E6B6E6F776E206572726F72206FA7
:1000900063637572726564004E6F2041434B206F3D
:1000A0006E2064617461004E6F2041434B206F6E7F
:1000B000206164647265737300546F6F206D7563A3
:1000C00068206461746120696E206275666665727D
:1000D00000426F6172642072657365742E00506F08
:1000E0007765722D6379636C696E6720626F6172E8
:1000F000642E2E2E00577269746520746F2044415F
:10010000432073756363657366756C004441433ABD
:1001100000000000080002010000030407000000C6
:1001200000000000000102040810204080010204C9
:10013000081020010204081020040404040404042C
:10014000040202020202020303030303030000008D
:1001500000250028002B0000000000240027002AB2
:1001600000007804230611241FBECFEFD8E0DEBFC5
:10017000CDBF11E0A0E0B1E0EAE2F1E102C00590FC
:100180000D92A233B107D9F722E0A2E3B1E001C09A
:100190001D92AA39B207E1F711E0C6E6D1E004C02A
:1001A0002297FE010E948F08C236D107C9F70E942C
:1001B000DE060C9493080C940000F89442E04598F5
:1001C0002AE02A95F1F7449838E00000000000008A
:1001D0000000869518F40000459A03C04598000079
:1001E000000022E02A95F1F7449A3A9539F4892FD4
:1001F00035E04A9551F023E0000001C025E02A9542
:10020000F1F7449800000000E3CF24E02A95F1F7CD
:10021000449822E02A95F1F7459822E02A95F1F7D3
:10022000449A26E02A95F1F7459A189582EA91E0DA
:100230000E944E0426E040E052EC61E070E084EF62
:1002400091E00E945F0561E088E00E94FB0761E0A9
:1002500089E00E94FB0760E08EE00E94FB0760E0FF
:1002600088E00E94340860E089E00E94340861E080
:100270008DE00E94FB0761E08AE00E94FB0780E0BE
:100280000E94CF070E94C00160E08AE00E9434080B
:1002900062E370E080E090E00E945A0761E08AE04B
:1002A0000C94340864EF71E080E090E00E945A07FB
:1002B00061E08DE00E94340864EF71E080E090E03E
:1002C0000E945A0760E08DE00E94340886EC94E1B9
:1002D0000C948C018230910571F02CF4019789F413
:1002E00069EB70E010C08330910541F0049749F448
:1002F00061E870E008C067EA70E005C068E970E096
:1003000002C068E670E084EF91E00C94CB06ECEB61
:10031000F0E0808110820895CF93C82F0E9487015A
:100320006EED70E084EF91E00E94CB0660E08AE021
:100330000E94340868E873E180E090E00E945A0768
:1003400061E08AE00E94340864EF71E080E090E0B0
:100350000E945A0761ED70E084EF91E00E94CB06A5
:1003600061E082E10E94FB0761E083E10E94FB07FC
:1003700061E08DE00E9434088C2FCF910C94DD0059
:1003800060E682EA91E00E94580460E082EA91E02F
:100390000E940F0460E082EA91E00E940F0482EA6A
:1003A00091E00E94750490E09093330180933201B4
:1003B000892B61F06CE071E084EF91E00E94CB0644
:1003C00080913201909133010C946A0165EF70E0E5
:1003D00084EF91E00C94CB061092A10181E0809310
:1003E0009F0110929E0161E082E10E94340861E069
:1003F00083E10E943408E9EBF0E080818E7F808306
:1004000080818D7F808388E48093B80085E4809329
:10041000BC0008950F93413208F04AC09091A101A9
:100420009111FCCF92E09093A10100939F019FEF67
:10043000909334011092790140937801FB016AE7AF
:1004400071E0DB019A2F961B941718F491919D93FC
:10045000F9CF1092A0019091A001880F892B809371
:10046000A00180919E01813061F410929E018091E3
:10047000A0018093BB008091BC0083FDF8CF85EC88
:1004800001C085EE8093BC00222321F08091A10160
:100490008230E1F3809134018F3F61F0809134012B
:1004A000803251F080913401803341F483E007C001
:1004B00081E005C080E003C082E001C084E00F91CC
:1004C0000895613298F42091A101243089F4609359
:1004D0005601FC0188E591E0DC012A2F281B261734
:1004E00018F421912D93F9CF80E0089581E00895CB
:1004F00082E0089585ED8093BC008091BC0084FD6E
:10050000FCCF1092A101089585EC8093BC0010925D
:10051000A10108951F920F920FB60F9211242F93ED
:100520003F934F935F936F937F938F939F93AF937B
:10053000BF93EF93FF938091B900887F803609F4D1
:100540009EC078F5883209F45DC090F4803109F4DA
:1005500056C038F4882309F4F5C0883009F44FC038
:10056000F5C0883109F44EC0803209F45FC0EEC096
:10057000803409F46AC058F4803309F457C08833D2
:1005800009F0E4C0809334010E948402DFC080350A
:1005900009F44FC0883509F45DC0883409F0D6C02D
:1005A000D3C0883909F4C4C0A8F4883709F467C0F7
:1005B00038F4883609F463C0803709F460C0C6C0D7
:1005C000883809F4B5C0803909F45FC0803809F073
:1005D000BDC05BC0803B09F483C038F4803A09F4A5
:1005E00066C0883A09F47CC0B1C0803C09F4A4C05C
:1005F000883C09F4A1C0883B09F487C0A7C080915A
:10060000A00110C09091790180917801981770F540
:10061000E091790181E08E0F80937901F0E0E65856
:10062000FE4F80818093BB0085EC83C080933401B2
:100630008BC0E091790181E08E0F809379018091E8
:10064000BB00F0E0E658FE4F8083909179018091E5
:1006500078016BC0E091790181E08E0F8093790180
:100660008091BB00F0E0E658FE4F808380919F01AF
:1006700081116AC081E080939E0184EA5EC083E0BC
:100680008093A10110923501CFCF80913501803246
:1006900008F04EC0E091350181E08E0F8093350166
:1006A0008091BB00F0E0EA5CFE4F8083BDCF0E94EA
:1006B000840280913501803230F4E0913501F0E020
:1006C000EA5CFE4F10826091350170E0E0919A0182
:1006D000F0919B0186E391E009951092350136C0B7
:1006E00084E08093A1011092570110925601E0918D
:1006F0009C01F0919D01099580915601811105C0E1
:1007000081E08093560110925801E091570181E0F9
:100710008E0F80935701F0E0E85AFE4F808180935E
:10072000BB009091570180915601981708F47CCF37
:1007300085E88093BC000AC085EC8093BC001092D1
:10074000A10104C0109234010E947A02FF91EF913E
:10075000BF91AF919F918F917F916F915F914F91D9
:100760003F912F910F900FBE0F901F901895809181
:10077000D20190E02091D301821B9109089520912C
:10078000D3018091D201281750F4E22FF0E0EC520F
:10079000FE4F808190E02F5F2093D30108958FEF6B
:1007A0009FEF0895E091D3018091D201E81730F4D2
:1007B000F0E0EC52FE4F808190E008958FEF9FEFC4
:1007C00008950895CF92DF92EF92FF920F931F93B7
:1007D000CF93DF937C01CB018A012091AE012223CC
:1007E00089F0EB016B01C40ED51ECC15DD0569F057
:1007F0006991D701ED91FC910190F081E02DC70145
:100800000995F3CF642F0E946102C801DF91CF9157
:100810001F910F91FF90EF90DF90CF900895CF93AD
:10082000DF931F92CDB7DEB769832091AE012223FB
:10083000D1F02091AF01203240F021E030E0FC0106
:100840003383228380E090E015C08091B001E82FCF
:10085000F0E0EF54FE4F998190838F5F8093B00159
:100860008093AF0105C061E0CE0101960E94610254
:1008700081E090E00F90DF91CF910895FC01138209
:10088000128248EE53E060E070E044835583668353
:10089000778385E091E09183808308951092D3015E
:1008A0001092D2011092B0011092AF010C94EC01A1
:1008B00081E08093AE016093D1011092B00110925B
:1008C000AF0108950F93062F21E04091AF0161EB36
:1008D00071E08091D1010E940A021092B001109241
:1008E000AF011092AE010F91089561E00C94620483
:1008F00082EA91E00C943E04FC01818D228D90E00F
:10090000805C9F4F821B91098F7399270895FC018A
:10091000918D828D981731F0828DE80FF11D858DB4
:1009200090E008958FEF9FEF0895FC01918D828DE7
:10093000981761F0828DDF01A80FB11D5D968C9133
:10094000928D9F5F9F73928F90E008958FEF9FEF3E
:10095000089589E196E0892B49F080E090E0892BA9
:1009600029F00E94190681110C9400000895FC01E1
:10097000848DDF01A80FB11DA35ABF4F2C91848D28
:1009800090E001968F739927848FA689B7892C935D
:10099000A089B1898C9180648C93938D848D9813F8
:1009A00006C00288F389E02D80818F7D80830895C1
:1009B000CF93DF93EC01888D8823C9F0EA89FB8906
:1009C000808185FD05C0A889B9898C9186FD0FC0FD
:1009D0000FB607FCF5CF808185FFF2CFA889B989D2
:1009E0008C9185FFEDCFCE010E94B704E7CFDF9158
:1009F000CF910895CF92DF92FF920F931F93CF93E1
:100A0000DF931F92CDB7DEB76C0181E0D601589617
:100A10008C9358975B969C915B975C968C915C97B6
:100A2000981307C05096ED91FC915197808185FDF8
:100A30002EC0F601038D10E00F5F1F4F0F731127BB
:100A4000F02EF601848DF81211C00FB607FCF9CF15
:100A5000D6015096ED91FC915197808185FFF1CFA1
:100A6000C60169830E94B7046981EBCF838DE80FCB
:100A7000F11DE35AFF4F6083D6015B960C935B97A1
:100A80005296ED91FC915397808180620CC0D60103
:100A90005696ED91FC91579760835096ED91FC919D
:100AA000519780818064808381E090E00F90DF9196
:100AB000CF911F910F91FF90DF90CF900895BF923B
:100AC000CF92DF92EF92FF92CF93DF93EC016A0116
:100AD0007B01B22EE889F98982E08083411581EE9D
:100AE000580761057105A1F060E079E08DE390E0C1
:100AF000A70196010E946B08215031094109510953
:100B00005695479537952795211580E1380798F038
:100B1000E889F989108260E874E88EE190E0A70125
:100B200096010E946B0821503109410951095695DF
:100B3000479537952795EC85FD853083EE85FF85B4
:100B40002083188EEC89FD89B082EA89FB89808137
:100B500080618083EA89FB89808188608083EA895B
:100B6000FB89808180688083EA89FB8980818F7D11
:100B70008083DF91CF91FF90EF90DF90CF90BF9077
:100B800008951F920F920FB60F9211242F938F93F7
:100B90009F93EF93FF93E0910402F091050280810F
:100BA000E0910A02F0910B0282FD12C090818091C7
:100BB0000D028F5F8F7320910E02821751F0E0912A
:100BC0000D02F0E0EC50FE4F958F80930D0201C0B6
:100BD0008081FF91EF919F918F912F910F900FBE88
:100BE0000F901F9018951F920F920FB60F9211241D
:100BF0002F933F934F935F936F937F938F939F9325
:100C0000AF93BF93EF93FF9384EF91E00E94B704FB
:100C1000FF91EF91BF91AF919F918F917F916F91D4
:100C20005F914F913F912F910F900FBE0F901F90AA
:100C3000189584EF91E00E947C0421E0892B09F44F
:100C400020E0822F08951092F7011092F60188EEAD
:100C500093E0A0E0B0E08093F8019093F901A093B5
:100C6000FA01B093FB0185E191E09093F501809347
:100C7000F40185EC90E0909301028093000284ECF3
:100C800090E0909303028093020280EC90E09093B6
:100C900005028093040281EC90E090930702809318
:100CA000060282EC90E0909309028093080286ECA1
:100CB00090E090930B0280930A0210920D02109222
:100CC0000E0210920F02109210020895CF92DF923E
:100CD000EF92FF920F931F93CF93DF937C016A01F2
:100CE000EB0100E010E00C151D0571F06991D701D2
:100CF000ED91FC910190F081E02DC7010995892BC0
:100D000019F00F5F1F4FEFCFC801DF91CF911F91F7
:100D10000F91FF90EF90DF90CF90089561157105CE
:100D200081F0DB010D900020E9F7AD014150510940
:100D3000461B570BDC01ED91FC910280F381E02D05
:100D4000099480E090E00895EF92FF920F931F9333
:100D5000CF93DF938C017B01C0E0D0E0F701EC0F73
:100D6000FD1F6491662359F0F801A081B181ED91D6
:100D7000FC91C8010995892B11F02196EFCFCE0186
:100D8000DF91CF911F910F91FF90EF90089561E255
:100D900071E00C948E060F931F93CF93DF93EC01B9
:100DA0000E94A4068C01CE010E94C706800F911FED
:100DB000DF91CF911F910F91089508950E9494079C
:100DC0000E94DD060E941601C9EAD4E00E94520189
:100DD0002097E1F30E94A904F9CF1F920F920FB65A
:100DE0000F9211242F933F938F939F93AF93BF93B1
:100DF0008091920290919302A0919402B0919502F9
:100E00003091910223E0230F2D3720F40196A11D8C
:100E1000B11D05C026E8230F0296A11DB11D209328
:100E200091028093920290939302A0939402B093C4
:100E300095028091960290919702A0919802B091AC
:100E400099020196A11DB11D80939602909397027D
:100E5000A0939802B0939902BF91AF919F918F9107
:100E60003F912F910F900FBE0F901F9018953FB795
:100E7000F8948091960290919702A0919802B09177
:100E8000990226B5A89B05C02F3F19F00196A11D18
:100E9000B11D3FBF6627782F892F9A2F620F711DD2
:100EA000811D911D42E0660F771F881F991F4A958B
:100EB000D1F708958F929F92AF92BF92CF92DF9217
:100EC000EF92FF926B017C010E9437074B015C019E
:100ED000C114D104E104F104F1F00E946A080E94F7
:100EE0003707681979098A099B09683E73408105AB
:100EF000910570F321E0C21AD108E108F10888EEEB
:100F0000880E83E0981EA11CB11CC114D104E10419
:100F1000F10429F7DDCFFF90EF90DF90CF90BF90E5
:100F2000AF909F908F900895789484B5826084BD2F
:100F300084B5816084BD85B5826085BD85B58160DD
:100F400085BDEEE6F0E0808181608083E1E8F0E03D
:100F50001082808182608083808181608083E0E86C
:100F6000F0E0808181608083E1EBF0E0808184604B
:100F70008083E0EBF0E0808181608083EAE7F0E04D
:100F800080818460808380818260808380818160B1
:100F900080838081806880831092C100089580934F
:100FA00000010895833081F028F4813099F0823077
:100FB000A1F008958730A9F08830B9F08430D1F4D9
:100FC000809180008F7D03C0809180008F77809317
:100FD0008000089584B58F7702C084B58F7D84BD6D
:100FE00008958091B0008F7703C08091B0008F7D0D
:100FF0008093B0000895CF93DF9390E0FC01EB5D08
:10100000FE4F2491FC01E75CFE4F8491882349F157
:1010100090E0880F991FFC01E95AFE4FA591B49109
:10102000835B9E4FFC01C591D4919FB7611108C0AD
:10103000F8948C91209582238C93888182230AC016
:10104000623051F4F8948C91322F309583238C9335
:101050008881822B888304C0F8948C91822B8C9396
:101060009FBFDF91CF9108950F931F93CF93DF938D
:101070001F92CDB7DEB7282F30E0F901EF5EFE4FAB
:101080008491F901EB5DFE4F1491F901E75CFE4F8D
:1010900004910023C9F0882321F069830E94D207BC
:1010A0006981E02FF0E0EE0FFF1FE35BFE4FA5919B
:1010B000B4919FB7F8948C91611103C0109581236E
:1010C00001C0812B8C939FBF0F90DF91CF911F9117
:1010D0000F9108950895A1E21A2EAA1BBB1BFD01D2
:1010E0000DC0AA1FBB1FEE1FFF1FA217B307E40707
:1010F000F50720F0A21BB30BE40BF50B661F771F5F
:10110000881F991F1A9469F760957095809590953E
:101110009B01AC01BD01CF010895EE0FFF1F0590AB
:0A112000F491E02D0994F894FFCF3C
:10112A0001000000000F04E203B703BF03D203E18A
:10113A000300000000FA0466067C0495048704D8BC
:10114A00040D0A006E616E00696E66006F766600B5
:02115A002E0065
:00000001FF
